:020000040802F0
:10000000000008209D3002084D2E0208552E0208DF
:100010005D2E0208652E02086D2E02080000000009
:10002000000000000000000000000000752E020823
:10003000832E020800000000912E02089F2E020865
:10004000ED300208ED300208ED300208ED30020814
:10005000ED300208ED300208ED300208ED30020804
:10006000ED300208ED300208ED300208ED300208F4
:10007000BB2E0208ED300208ED300208ED30020818
:10008000ED300208ED300208ED300208ED300208D4
:10009000ED300208ED300208ED300208ED300208C4
:1000A000ED300208E9A80208ED300208ED30020840
:1000B00035A90208ED300208ED300208ED300208E3
:1000C000ED300208ED300208ED300208ED30020894
:1000D000ED300208ED300208ED300208ED30020884
:1000E000ED300208ED300208ED300208ED30020874
:1000F000ED300208ED300208ED300208ED30020864
:10010000ED300208ED300208ED300208ED30020853
:10011000ED300208ED300208ED300208ED30020843
:10012000ED300208C72E0208D52E0208E9AF0208FA
:10013000E12E0208ED300208ED300208ED30020831
:10014000ED300208ED300208ED300208ED30020813
:10015000ED30020845AB0208ED300208316D0208AF
:10016000ED300208ED300208ED300208ED300208F3
:10017000ED300208ED300208ED300208000000000A
:10018000ED300208ED300208ED430208ED300208C0
:10019000ED300208ED300208ED300208ED300208C3
:1001A0000000000000000000ED300208ED30020801
:1001B000ED300208ED300208ED300208ED300208A3
:1001C000ED300208ED30020800000000ED300208BA
:1001D000ED300208ED300208ED300208ED30020883
:1001E000ED300208ED300208ED300208ED30020873
:0801F00000000000ED300208E0
:1002000010B5054C237833B9044B13B10448AFF350
:1002100000800123237010BD104400200000000066
:100220001465030808B5034B1BB103490348AFF33A
:10023000008008BD0000000014440020146503087D
:1002400010F8012B11F8013B012A28BF9A42F7D080
:10025000D01A7047000000000000000000000000FD
:1002600001F0FF01102A2BDB10F0070F08D010F867
:10027000013B013A8B422DD010F0070F42B3F6D16B
:10028000F0B441EA012141EA014122F007047FF084
:1002900000070023F0E80256083C85EA010586EADB
:1002A000010685FA47F5A3FA87F586FA47F6A5FA17
:1002B00087F68EB9EED1F0BC01F0FF0102F0070223
:1002C00032B110F8013B013A83EA010313B1F8D1CE
:1002D0000020704701387047002D06BF35460338AF
:1002E000073815F0010F07D1013015F4807F02BFE8
:1002F000013015F4C03F0130F0BC0138704700BF39
:10030000034613F8012B002AFBD1181A0138704755
:100310007BB972B90029BEBF00204FF0004106E052
:1003200008BF00281CBF6FF000414FF0FF3000F005
:10033000D3B9ADF1080C6DE904CE002909DB002B1F
:100340001ADB00F04DF8DDF804E0DDE9022304B02B
:100350007047404261EB4101002B1BDB00F040F88D
:10036000DDF804E0DDE9022304B0404261EB410125
:10037000524263EB43037047524263EB430300F086
:100380002FF8DDF804E0DDE9022304B0404261EB20
:1003900041017047524263EB430300F021F8DDF85E
:1003A00004E0DDE9022304B0524263EB43037047EB
:1003B00053B94AB9002908BF00281CBF4FF0FF31CC
:1003C0004FF0FF3000F088B9ADF1080C6DE904CEB4
:1003D00000F006F8DDF804E0DDE9022304B0704720
:1003E0002DE9F047089D8E4604468846002B4AD1E9
:1003F0008A42174662D9B2FA82F64EB1C6F120039C
:1004000001FA06F820FA03F3B74043EA0808B440BB
:100410004FEA174E1FFA87FCB8FBFEF1230C0EFBC8
:10042000118843EA084301FB0CF29A4209D9FB18F0
:1004300001F1FF3080F0EA809A4240F2E780023911
:100440003B449A1AA3B2B2FBFEF00EFB102243EA21
:10045000024300FB0CFC9C4509D9FB1800F1FF325C
:1004600080F0D6809C4540F2D3803B44023840EA7D
:100470000140A3EB0C0300211DB1F3400022C5E9AC
:100480000032BDE8F0878B4205D90DB1C5E9000106
:1004900000210846F5E7B3FA83F1002946D17345F8
:1004A00002D3824200F20581841A6EEB030201201E
:1004B0009046002DE5D0C5E90048E2E7002A00F0AB
:1004C0009080B2FA82F6002E40F0A4808A1A030CC3
:1004D0004FEA174E80B2BCB20121B2FBFEFC0EFB0C
:1004E0001C2243EA024304FB0CF29A4207D9FB1890
:1004F0000CF1FF3802D29A4200F2E080C4469B1A07
:10050000B3FBFEF20EFB123340EA034302FB04F49A
:100510009C4207D9FB1802F1FF3002D29C4200F244
:10052000CA8002461B1B42EA0C40A5E7C1F1200627
:100530008B4022FA06F71F430EFA01F420FA06F365
:100540002EFA06FE4FEA1749234300FA01F81FFA74
:1005500087FCBEFBF9F01C0C09FB10EE44EA0E44CC
:1005600000FB0CFEA64502FA01F209D93C1900F184
:10057000FF3A80F09C80A64540F2998002383C44C6
:10058000A4EB0E041FFA83FEB4FBF9F309FB13443A
:100590004EEA044403FB0CFCA44508D93C1903F1C2
:1005A000FF3E80F08280A4457FD9023B3C4443EA71
:1005B0000040A4EB0C04A0FB02EC64457346E1464A
:1005C00062D35FD05DB1B8EB030264EB090404FAB7
:1005D00006F622FA01F31E43CC40C5E9006400216F
:1005E0004FE7B1FBF2FC010C41EA0E4180B240EA58
:1005F00001423B4638463C46B846BE462026B1FB43
:10060000F7F1A2EB080241EA0C4166E7014618E760
:1006100010462CE7C6F120022EFA02F3B740B14093
:1006200020FA02F24FEA174E0A43B3FBFEF8BCB2BF
:100630000EFB1833110C41EA034108FB04F9B040EA
:1006400089454FEA104380B23ED9791808F1FF3C42
:1006500001D289451FD8A1EB0901B1FBFEF909FBC5
:1006600004F80EFB191192B242EA0142424529D226
:10067000BA1809F1FF31C4D24245C2D2A9F1020130
:100680003A44BEE7F0459DD2BEEB02036CEB070C8B
:100690000138E14696E7A7EB09094944A8F1020CA5
:1006A000B1FBFEF909FB04F8DBE773467FE7504630
:1006B00066E70846FDE63B44023A33E7ACF1020C3C
:1006C0003B441CE749469CE7A1EB0901C446B1FB4A
:1006D000FEF909FB04F8C4E7704700BF80B400AF1F
:1006E000044BDB681B0A03F007031846BD465DF8A0
:1006F000047B704700ED00E080B483B000AF034698
:10070000FB7197F90730002B0BDBFB7903F01F021D
:10071000074997F907305B09012000FA02F241F816
:10072000232000BF0C37BD465DF8047B704700BF37
:1007300000E100E080B483B000AF03463960FB7194
:1007400097F90730002B0ADB3B68DAB20C4997F9BE
:1007500007301201D2B20B4483F800230AE03B6851
:10076000DAB20849FB7903F00F03043B1201D2B25D
:100770000B441A7600BF0C37BD465DF8047B70470A
:1007800000E100E000ED00E080B489B000AFF86067
:10079000B9607A60FB6803F00703FB61FB69C3F192
:1007A0000703042B28BF0423BB61FB690433062B1A
:1007B00002D9FB69033B00E000237B614FF0FF326D
:1007C000BB6902FA03F3DA43BB681A407B699A40BB
:1007D0004FF0FF317B6901FA03F3D9437B680B408B
:1007E000134318462437BD465DF8047B704780B438
:1007F00089B000AFF860B9607A60FB682C331946A5
:10080000BB6803F440734FF44072BA61BA6992FA5C
:10081000A2F27A617A69B2FA82F2D2B2D3409B0034
:100820000B44FB61FB691A68BB6803F01F031F21BF
:1008300001FA03F3DB431A407B6803F01F01BB6836
:1008400003F01F0301FA03F31A43FB691A6000BFA8
:100850002437BD465DF8047B704780B483B000AF99
:10086000786039607B689B6823F480623B681A4338
:100870007B689A6000BF0C37BD465DF8047B70470B
:1008800080B48DB000AFF860B9607A60FB680C335B
:100890001946BB6803F000734FF00072BA61BA6981
:1008A00092FAA2F27A617A69B2FA82F2D2B2D340B3
:1008B0009B000B44FB62FB6A1A68BB6803F0F87389
:1008C0004FF0F8713962396A91FAA1F1F961F96969
:1008D000B1FA81F1C9B2CB40072101FA03F3DB433E
:1008E0001A40BB6803F0F8734FF0F871B962B96A47
:1008F00091FAA1F17962796AB1FA81F1C9B2CB407A
:10090000796801FA03F31A43FB6A1A6000BF3437AF
:10091000BD465DF8047B704780B485B000AFF860D9
:10092000B9607A600D4ABB6813441B781A46FB68AD
:1009300013441B6823F0C0020849BB680B441B78B2
:100940001946FB680B4419467B6813430B6000BFD4
:100950001437BD465DF8047B704700BFB8850308B7
:1009600080B485B000AFF860B9607A600D4ABB68AA
:1009700013441B781A46FB6813441B6823F49072D7
:100980000849BB680B441B781946FB680B441946A1
:100990007B6813430B6000BF1437BD465DF8047BD2
:1009A000704700BFB885030880B485B000AFF86019
:1009B000B9607A600D4ABB6813441B781A46FB681D
:1009C00013441B6823F400720849BB680B441B786E
:1009D0001946FB680B4419467B6813430B6000BF44
:1009E0001437BD465DF8047B704700BFB885030827
:1009F00080B485B000AFF860B9607A600D4ABB681A
:100A000013441B781A46FB6813441B6823F4806266
:100A10000849BB680B441B781946FB680B44194610
:100A20007B6813430B6000BF1437BD465DF8047B41
:100A3000704700BFB885030880B485B000AFF86088
:100A4000B9607A600D4ABB6813441B781A46FB688C
:100A500013441B6823F4C0520849BB680B441B783D
:100A60001946FB680B4419467B6813430B6000BFB3
:100A70001437BD465DF8047B704700BFB885030896
:100A800080B485B000AFF860B9607A600D4ABB6889
:100A900013441B781A46FB6813441B6823F4C042B6
:100AA0000849BB680B441B781946FB680B44194680
:100AB0007B6813430B6000BF1437BD465DF8047BB1
:100AC000704700BFB885030880B485B000AFF860F8
:100AD000B9607A600D4ABB6813441B781A46FB68FC
:100AE00013441B6823F440320849BB680B441B784D
:100AF0001946FB680B4419467B6813430B6000BF23
:100B00001437BD465DF8047B704700BFB885030805
:100B100080B485B000AFF860B9607A600D4ABB68F8
:100B200013441B781A46FB6813441B6823F0F052E9
:100B30000849BB680B441B781946FB680B441946EF
:100B40007B6813430B6000BF1437BD465DF8047B20
:100B5000704700BFB885030880B483B000AF7860E9
:100B600039600C4A3B6813441B781A467B6813446F
:100B70005B6908493A680A44127811467A680A445F
:100B800023F00403536100BF0C37BD465DF8047BBE
:100B9000704700BFB885030880B483B000AF7860A9
:100BA0007B681B6843F001027B681A6000BF0C374A
:100BB000BD465DF8047B704780B483B000AF7860B9
:100BC0007B681B6823F400327B681A6000BF0C3717
:100BD000BD465DF8047B704780B483B000AF786099
:100BE0007B681B6823F400227B681A6000BF0C3707
:100BF000BD465DF8047B704780B485B000AFF860F7
:100C0000B9607A60FB68DA68064B1340B9687A68A5
:100C10000A431A43FB68DA6000BF1437BD465DF82B
:100C2000047B704701F8FFFF80B483B000AF7860A9
:100C30007B68DB6823F400427B68DA6000BF0C3716
:100C4000BD465DF8047B704780B483B000AF786028
:100C50007B685B6843F000727B685A6000BF0C37AA
:100C6000BD465DF8047B704780B483B000AF786008
:100C70007B684CF6CC421A6000BF0C37BD465DF86D
:100C8000047B704780B483B000AF78607B6845F226
:100C900055521A6000BF0C37BD465DF8047B7047A3
:100CA00080B483B000AF786039603B6803F007021E
:100CB0007B685A6000BF0C37BD465DF8047B704707
:100CC00080B483B000AF786039603B68C3F30B0237
:100CD0007B689A6000BF0C37BD465DF8047B7047A7
:100CE00080B483B000AF786039603B68C3F30B0217
:100CF0007B681A6100BF0C37BD465DF8047B704706
:100D000080B483B000AF78607B68DB6803F00703D2
:100D1000002B01D1012300E0002318460C37BD460B
:100D20005DF8047B704780B483B000AF78607B6867
:100D30001B6843F040027B681A6000BF0C37BD4659
:100D40005DF8047B704780B483B000AF7860396091
:100D50007B685B6823F010023B681A437B685A602B
:100D600000BF0C37BD465DF8047B704780B483B08C
:100D700000AF78607B685B6843F008027B685A606C
:100D800000BF0C37BD465DF8047B704780B483B06C
:100D900000AF78607B685B6823F008027B685A606C
:100DA00000BF0C37BD465DF8047B704780B483B04C
:100DB00000AF78607B681B6843F080027B681A6034
:100DC00000BF0C37BD465DF8047B704780B483B02C
:100DD00000AF78607B681B6823F080027B681A6034
:100DE00000BF0C37BD465DF8047B704780B485B00A
:100DF00000AF786039603B68012B28D03B68042B3A
:100E000023D03B68102B1ED03B68402B19D03B6889
:100E1000B3F5807F13D03B68B3F5806F0DD03B688E
:100E2000B3F5805F07D03B68B3F5803F01D107235E
:100E30000EE008230CE006230AE0052308E0042363
:100E400006E0032304E0022302E0012300E0002384
:100E5000FB737B6818331946FB7B0B4AD35C0B444E
:100E6000BB60BB681A68FB7B0849CB5C194604234E
:100E70008B40DB431A40BB681A6000BF1437BD4685
:100E80005DF8047B704700BFC0850308CC8503086C
:100E900080B485B000AF786039603B68012B28D002
:100EA0003B68042B23D03B68102B1ED03B68402BA3
:100EB00019D03B68B3F5807F13D03B68B3F5806FE2
:100EC0000DD03B68B3F5805F07D03B68B3F5803F3A
:100ED00001D107230EE008230CE006230AE00523D6
:100EE00008E0042306E0032304E0022302E00123D8
:100EF00000E00023FB737B6818331946FB7B0A4A2A
:100F0000D35C0B44BB60BB681A68FB7B0749CB5CB6
:100F1000194608238B401A43BB681A6000BF143778
:100F2000BD465DF8047B7047C0850308CC85030887
:100F300080B483B000AF786039607B689A68064BF4
:100F400013403A681A437B689A6000BF0C37BD466D
:100F50005DF8047B704700BFF8BFFEFF80B483B02C
:100F600000AF786039607B685B6823F070023B6893
:100F70001A437B685A6000BF0C37BD465DF8047B9E
:100F8000704780B483B000AF786039607B685B687D
:100F900023F470023B681A437B685A6000BF0C3729
:100FA000BD465DF8047B704780B483B000AF7860C5
:100FB0007B689B6823F080027B689A6000BF0C37D7
:100FC000BD465DF8047B704780B483B000AF7860A5
:100FD0007B681B6843F001027B681A6000BF0C3716
:100FE000BD465DF8047B704780B483B000AF786085
:100FF00039607B681B6823F4F8123B681B041A43B2
:101000007B681A6000BF0C37BD465DF8047B7047F3
:1010100080B483B000AF786039607B681B6823F0D0
:1010200078723B685B051A437B681A6000BF0C3717
:10103000BD465DF8047B704780B483B000AF786034
:101040007B689B6843F480427B689A6000BF0C37E2
:10105000BD465DF8047B704780B483B000AF786014
:1010600039607B689B6823F400423B681A437B68C5
:101070009A6000BF0C37BD465DF8047B704780B4B2
:1010800083B000AF78607B685B6823F490427B6834
:101090005A607B689B6823F02A027B689A6000BFD5
:1010A0000C37BD465DF8047B704780B483B000AF59
:1010B000786039607B683A689A6100BF0C37BD463A
:1010C0005DF8047B704780B483B000AF786039600E
:1010D0003B681A047B689A6100BF0C37BD465DF817
:1010E000047B704780B485B000AF7860084B1A6B02
:1010F00007497B6813430B63054B1A6B7B681340EE
:10110000FB60FB6800BF1437BD465DF8047B704789
:101110000038024080B485B000AF7860084B1A6C8C
:1011200007497B6813430B64054B1A6C7B681340BB
:10113000FB60FB6800BF1437BD465DF8047B704759
:101140000038024080B485B000AF7860084B5A6C1C
:1011500007497B6813434B64054B5A6C7B6813400B
:10116000FB60FB6800BF1437BD465DF8047B704729
:101170000038024080B500AF00F01EFC00BF80BD0B
:1011800080B500AF0FF0E0FA00F02EF801F02CFB74
:1011900001F0AEFA00F054FB00F00EFC00F0D2FCBF
:1011A00000F082FD00F090F800F0FCFD00F0DCFFA4
:1011B00001F0B4F800F074FE01F04CF901F0FEF912
:1011C00000F0D6F900F084FA00F046FF00F08AFF44
:1011D00000F0D0FB00F012FB01F089FF01F09BFF53
:1011E00001F0B5FF00BFFDE780B594B000AF07F197
:1011F0001C0334220021184613F0D2F907F108032A
:1012000000221A605A609A60DA601A612C4B1B6CDB
:101210002B4A43F080531364294B1B6C03F080531B
:101220007B607B68274B1B68264A43F4404313606E
:10123000244B1B6803F440433B603B680923FB617C
:101240004FF480333B6201233B6302237B634FF403
:101250008003BB630C23FB63C0233B6402237B64DA
:101260000223BB640223FB6407F11C0318460FF042
:101270009DFD0346002B01D001F09EFD0FF046FDC1
:101280000346002B01D001F097FD0F23BB60022322
:10129000FB6000233B614FF4A0537B614FF480530C
:1012A000BB6107F108030621184610F02DF803462C
:1012B000002B01D001F080FD00BF5037BD4680BD3E
:1012C000003802400070004080B592B000AF07F1D6
:1012D0003C0300221A605A609A6007F1280300223A
:1012E0001A605A609A60DA601A6107F118030022E6
:1012F0001A605A609A60DA603B4600221A605A60AF
:101300009A60DA601A615A614FF48070FFF71AFF31
:101310000420FFF7E7FE0220FFF7E4FE01233B6015
:1013200003237B6000233B613B461946844810F051
:1013300074FF02233B6003237B6000233B613B4639
:1013400019467F4810F069FF04233B6003237B604C
:1013500000233B613B461946794810F05EFF0823A5
:101360003B6003237B6000233B613B461946744886
:1013700010F053FF10233B6003237B6000233B618D
:101380003B4619466E4810F048FF20233B6003237C
:101390007B6000233B613B461946694810F03DFFE6
:1013A00001233B6003237B6000233B613B461946DE
:1013B000644810F032FF02233B6003237B6000236C
:1013C0003B613B4619465F4810F027FF002204218D
:1013D0005D48FFF79DFB002204215B48FFF79CFA64
:1013E000002204215848FFF76FFB4FF4807204215C
:1013F0005548FFF7B5FA002204215348FFF7D4FA05
:101400004FF4806204215048FFF7F2FA4FF4006273
:1014100004214D48FFF710FB4FF4005204214A48C5
:10142000FFF72EFB04214848FFF796FB0023FB63E0
:1014300000233B644FF480737B6407F13C0319463F
:10144000424810F071FD0023BB624FF4E003FB62E1
:1014500000233B6300237B634FF44073BB6307F1BE
:1014600028031946394810F08BFD00213748FFF753
:10147000F4F94FF48033BB610023FB6107F11803DB
:101480001946334810F008FD0A224FF400712F4826
:10149000FFF7ADF901220A212C48FFF7F1F92D4A97
:1014A00040F205212948FFF7A2F9012229492748DE
:1014B000FFF7E6F9284A40F20A212448FFF797F996
:1014C000012225492148FFF7DBF9244A40F20F2188
:1014D0001E48FFF78CF9012220491C48FFF7D0F97C
:1014E0001F4A4FF405711948FFF781F901221C4981
:1014F0001648FFF7C5F91B4A40F219211348FFF7B8
:1015000076F9012217491148FFF7BAF9164A4FF444
:1015100080710E48FFF76BF9012213490B48FFF762
:10152000AFF9124A40F205110848FFF760F90122AD
:101530000E490648FFF7A4F900BF4837BD4680BDF5
:101540000008024000040240006402400020014004
:10155000002301400B0030000C0060000D009000E3
:101560000E00C0000F00F000080080030900B00367
:1015700080B58EB000AF07F12C0300221A605A60CC
:101580009A6007F1180300221A605A609A60DA60C4
:101590001A613B4600221A605A609A60DA601A614A
:1015A0005A614FF40070FFF7CDFD0120FFF79AFD5F
:1015B00004233B6003237B6000233B613B461946C9
:1015C0003E4810F02AFE08233B6003237B60002383
:1015D0003B613B461946394810F01FFE4FF0007240
:1015E00002213748FFF794FA002202213448FFF71E
:1015F00093F9002202213248FFF766FA4FF4807215
:1016000002212F48FFF7ACF9002202212C48FFF7F6
:10161000CBF94FF4806202212948FFF7E9F94FF432
:10162000006202212648FFF707FA4FF40052022118
:101630002348FFF725FA02212148FFF78DFA0023FE
:10164000FB6200233B634FF480737B6307F12C0341
:1016500019461C4810F068FC0023BB614FF480134E
:10166000FB6100233B6200237B624FF44073BB624B
:1016700007F118031946134810F082FC4FF48061FB
:101680001048FFF7EAF8104A4FF400710D48FFF7D1
:10169000AEF801220C490B48FFF7F2F80B4A40F272
:1016A00005210848FFF7A3F8002208490548FFF77D
:1016B000E7F800BF3837BD4680BD00BF00000240DC
:1016C0000064024000210140030090020200600219
:1016D00080B58EB000AF07F12C0300221A605A606B
:1016E0009A6007F1180300221A605A609A60DA6063
:1016F0001A613B4600221A605A609A60DA601A61E9
:101700005A614FF48060FFF71DFD0120FFF7EAFCEE
:1017100002233B6003237B6000233B613B46194669
:10172000324810F07AFD4FF0806201213048FFF717
:10173000EFF9002201212E48FFF7EEF800220121E7
:101740002B48FFF7C1F94FF4807201212848FFF7B9
:1017500007F9002201212648FFF726F94FF480629D
:1017600001212348FFF744F94FF40062012120488A
:10177000FFF762F94FF4005201211D48FFF780F98D
:1017800001211B48FFF7E8F90023FB6200233B63BC
:1017900000237B6307F12C031946164810F0C4FBA5
:1017A0000023BB610023FB6100233B6200237B62BB
:1017B0004FF44073BB6207F1180319460D4810F04F
:1017C000DFFB4FF480610B48FFF747F80A4A4FF4FC
:1017D00000710848FFF70BF8012207490548FFF799
:1017E0004FF800BF3837BD4680BD00BF0000024043
:1017F00000640240002201400100300280B500AFC9
:101800000D4B0E4A1A600C4B00221A710A4B002233
:101810005A71094B00225A61074B00229A61064B0C
:1018200001221A6204480FF007F90346002B01D089
:1018300001F0C2FA00BF80BD2C44002000300240FD
:1018400080B5B2B000AF07F1AC0300221A605A6055
:101850009A60DA601A615A619A6107F19403002272
:101860001A605A609A60DA601A615A613B1D9022D0
:101870000021184612F094FE4FF480437B60002351
:10188000BB663B1D18460FF0F1FE0346002B01D04E
:1018900001F092FA0220FFF725FC4023C7F89430AC
:1018A0000223C7F898300323C7F89C300123C7F8F8
:1018B000A0300023C7F8A4300423C7F8A83007F1EC
:1018C00094031946284810F0A8FC8023C7F89430E8
:1018D0000223C7F898300323C7F89C300123C7F8C8
:1018E000A0300023C7F8A4300423C7F8A83007F1BC
:1018F000940319461C4810F090FC4FF40010FFF7B9
:1019000009FC1A48FFF7A0F9002200211748FFF749
:1019100073F91648FFF788F91448FFF75DF9134883
:10192000FFF74AF90023C7F8AC30114BC7F8B030C5
:101930000023C7F8B4300023C7F8B8300023C7F835
:10194000BC300023C7F8C0300023C7F8C43007F10B
:10195000AC031946054810F077FD0448FFF71CF961
:1019600000BFC837BD4680BD00040240005400409F
:10197000FF63106080B500AF0E48FFF775F90D48A2
:10198000FFF780F905210B48FFF78AF94FF47A61D8
:101990000848FFF795F900BF0648FFF7B1F903467D
:1019A000012BF9D14FF47A610248FFF799F900BF92
:1019B00080BD00BF0030004080B590B000AF07F19F
:1019C000180328220021184612F0EAFD3B460022A7
:1019D0001A605A609A60DA601A615A614FF4805056
:1019E000FFF7B0FB0120FFF77DFB10233B600223D4
:1019F0007B600323BB600023FB6000233B61052366
:101A00007B613B4619464C4810F007FC20233B60A5
:101A100002237B600323BB600023FB6000233B6148
:101A200005237B613B461946434810F0F6FB4023F3
:101A30003B6002237B600323BB600023FB60002329
:101A40003B6105237B613B4619463B4810F0E5FBB3
:101A500080233B6002237B600323BB600023FB6089
:101A600000233B6105237B613B461946324810F059
:101A7000D4FB4FF0C06203213048FFF749F8402201
:101A800003212E48FEF748FF4FF4003203212B4874
:101A9000FFF71AF8002203212848FEF761FF002211
:101AA00003212648FEF780FF4FF48062032123487C
:101AB000FEF79EFF002203212048FEF7BDFF002213
:101AC00003211E48FEF7DCFF03211C48FFF744F802
:101AD000FEF704FE0346002200211846FEF754FEDE
:101AE000034619462320FEF725FE2320FEF704FEB9
:101AF0000023BB610023FB614FF4E0633B620223E0
:101B00007B620023BB620023FB6200237B63002314
:101B1000BB630723FB6307F118031946084811F05C
:101B20006BF800210648FFF70EF90548FFF72EF97C
:101B300000BF4037BD4680BD000002400064024047
:101B40000030014080B590B000AF07F118032822A3
:101B50000021184612F024FD3B4600221A605A600C
:101B60009A60DA601A615A614FF48040FFF7D2FA46
:101B70000220FFF7B7FA4FF400533B6002237B606B
:101B80000323BB600023FB6000233B6105237B61D3
:101B90003B461946414810F040FB4FF480433B6000
:101BA00002237B600323BB600023FB6000233B61B7
:101BB00005237B613B461946384810F02EFB4FF455
:101BC00000433B6002237B600323BB600023FB6078
:101BD00000233B6105237B613B4619462F4810F0EB
:101BE0001CFB4FF0905201212D48FEF791FF00227F
:101BF00001212B48FEF790FE4FF440320121284886
:101C0000FEF762FF4FF4807201212548FEF7A8FE1F
:101C1000002201212248FEF7C7FE4FF48062012115
:101C20001F48FEF7E5FE4FF4006201211C48FEF755
:101C300003FF4FF4005201211948FEF721FF012153
:101C40001748FEF789FF0023BB614FF48273FB61E5
:101C50004FF470633B6200237B620023BB624FF44E
:101C60000073FB6200233B6300237B630023BB63A1
:101C70000723FB6307F1180319460A4810F0BCFF5D
:101C800000210848FFF75FF80648FFF76FF805489E
:101C9000FFF749F800BF4037BD4680BD0004024051
:101CA000006002400038004080B590B000AF07F1FE
:101CB000180328220021184612F072FC3B4600222D
:101CC0001A605A609A60DA601A615A614FF40040F3
:101CD000FFF720FA0420FFF705FA4FF480633B601A
:101CE00002237B600323BB600023FB6000233B6176
:101CF00006237B613B461946284810F08EFA4FF4C4
:101D000000633B6002237B600323BB600023FB6016
:101D100000233B6106237B613B4619461F4810F0B8
:101D20007CFA4FF480533B6002237B600323BB604B
:101D30000023FB6000233B6106237B613B46194681
:101D4000164810F06AFA0023BB614FF48273FB61FE
:101D50004FF4E0633B6200237B620023BB624FF4DD
:101D60000073FB6200233B6300237B630023BB63A0
:101D70000723FB6307F118031946094810F03CFFDD
:101D800000210748FEF7DFFF0548FEF7EFFF044894
:101D9000FEF7C9FF00BF4037BD4680BD00080240C6
:101DA000003C004080B590B000AF07F11803282236
:101DB0000021184612F0F4FB3B4600221A605A60DC
:101DC0009A60DA601A615A614FF40050FFF7BAF96D
:101DD0001020FFF787F94FF480533B6002237B60AC
:101DE0000323BB600023FB6000233B6105237B6171
:101DF0003B461946284810F010FA4FF400533B6058
:101E000002237B600323BB600023FB6000233B6154
:101E100005237B613B4619461F4810F0FEF94FF43D
:101E200080433B6002237B600323BB600023FB6095
:101E300000233B6105237B613B461946164810F0A1
:101E4000ECF90023BB614FF48273FB614FF4E06354
:101E50003B6200237B620123BB624FF40073FB6291
:101E600020233B6300237B630023BB630723FB63C7
:101E700007F118031946094810F0BEFE0021074873
:101E8000FEF761FF0548FEF781FF0448FEF74BFFB0
:101E900000BF4037BD4680BD001002400034014005
:101EA00080B590B000AF07F1180328220021184632
:101EB00012F076FB3B4600221A605A609A60DA60A4
:101EC0001A615A614FF40010FFF73CF90220FFF746
:101ED00009F908233B6002237B600323BB600023D6
:101EE000FB6000233B6108237B613B461946574852
:101EF00010F093F910233B6002237B600323BB6047
:101F00000023FB6000233B6108237B613B461946AD
:101F10004E4810F082F920233B6002237B600323AC
:101F2000BB600023FB6000233B6108237B613B46D1
:101F30001946464810F071F94FF0007205214448E7
:101F4000FEF7E6FD402205214148FEF7E5FC4FF48F
:101F5000403205213E48FEF7B7FD002205213C48EE
:101F6000FEF7FEFC002205213948FEF71DFD4FF467
:101F7000806205213648FEF73BFD002205213448EA
:101F8000FEF75AFD002205213148FEF779FD0521B3
:101F90002F48FEF7E1FD4FF0007206212C48FEF7B6
:101FA000B7FD002206212A48FEF7B6FC4FF4403266
:101FB00006212748FEF788FD002206212448FEF767
:101FC000CFFC002206212248FEF7EEFC4FF480628F
:101FD00006211F48FEF70CFD002206211C48FEF7D3
:101FE0002BFD002206211A48FEF74AFD062118485B
:101FF000FEF7B2FD0023BB614FF48273FB614FF427
:10200000E0633B6200237B620023BB624FF40073FA
:10201000FB6200233B6300237B630023BB63072336
:10202000FB6307F1180319460A4810F0E5FD00218B
:102030000848FEF788FE0748FEF798FE0548FEF7B9
:1020400072FE00BF4037BD4680BD00BF00040240A5
:10205000006402400054014080B586B000AF3B1DD3
:1020600000221A605A609A60DA601A610120FFF754
:1020700069F8FEF733FB0346002200211846FEF7FD
:1020800083FB034619461920FEF754FB1920FEF77F
:1020900033FB0023BB800023BB604FF6FF73FB6064
:1020A00000233B6100237B613B1D19460C4810F067
:1020B00097FE0B48FEF78AFE00210948FEF738FF1D
:1020C00000210748FEF74AFF00210548FEF759FFA7
:1020D0000348FEF769FF00BF1837BD4680BD00BF4B
:1020E0000000014080B586B000AF3B1D00221A60A1
:1020F0005A609A60DA601A610120FFF70BF8FEF768
:10210000EDFA0346002202211846FEF73DFB034686
:1021100019461C20FEF70EFB1C20FEF7EDFA0023EB
:10212000BB800023BB604FF0FF33FB6000233B61AB
:102130003B1D19464FF0804010F052FE4FF080409A
:10214000FEF734FE00214FF08040FEF7F1FE002143
:102150004FF08040FEF702FF4FF08040FEF724FF73
:1021600000BF1837BD4680BD80B594B000AF07F101
:102170003C0300221A605A609A60DA601A6107F123
:102180001C0320220021184612F00AFA3B1D0022EF
:102190001A605A609A60DA601A615A610420FEF788
:1021A000B9FF0A23BB8700233B644CF250337B64A6
:1021B0004FF40073BB6407F13C031946554810F017
:1021C0000FFE5448FEF702FE00215248FEF7B0FE13
:1021D00001215048FEF75CFE6023FB6100233B6257
:1021E00000237B620023BB620023FB6207F11C0318
:1021F0001A460121474810F08DFE01214548FEF79F
:10220000F5FD10214348FEF743FE07F11C031A4673
:102210001021404810F07EFE10213E48FEF7E6FDFA
:102220004FF480713B48FEF733FE07F11C031A465A
:102230004FF48071374810F06DFE4FF480713548CF
:10224000FEF7D4FD4FF480513248FEF721FE07F12E
:102250001C031A464FF480512E4810F05BFE4FF4D9
:1022600080512C48FEF7C2FD00212A48FEF776FE79
:102270002848FEF799FE0820FEF734FF4FF48053FC
:102280007B600223BB600023FB6000233B610023D3
:102290007B610223BB613B1D19461F480FF0BDFF48
:1022A0004FF400537B600223BB600023FB600023DC
:1022B0003B6100237B610223BB613B1D194616482D
:1022C0000FF0ABFF4FF480437B600223BB60002321
:1022D000FB6000233B6100237B610223BB613B1D4C
:1022E00019460D480FF099FF4FF400437B6002231D
:1022F000BB600023FB6000233B6100237B61022362
:10230000BB613B1D194604480FF087FF00BF5037E3
:10231000BD4680BD00080040000C024080B5B2B050
:1023200000AF07F1AC0300221A605A609A60DA60CD
:102330001A615A619A6107F1940300221A605A6087
:102340009A60DA601A615A613B1D9022002118469A
:1023500012F026F94FF480537B6000233B663B1D4F
:1023600018460FF083F90346002B01D000F024FD3E
:102370004FF08040FEF7CEFE1020FEF7B3FE802324
:10238000C7F894300223C7F898300323C7F89C306D
:102390000023C7F8A0300123C7F8A4300823C7F8EA
:1023A000A83007F19403194628480FF036FF4FF480
:1023B0008073C7F894300223C7F898300323C7F816
:1023C0009C300023C7F8A0300023C7F8A4300823AE
:1023D000C7F8A83007F1940319461C480FF01DFFF9
:1023E000FEF77CF9034600220B211846FEF7CCF9D4
:1023F000034619465220FEF79DF95220FEF77CF95C
:102400004FF4E133C7F8AC300023C7F8B0300023F5
:10241000C7F8B4300023C7F8B8300C23C7F8BC3075
:102420000023C7F8C0300023C7F8C43007F1AC035D
:102430001946074811F08EF80548FEF720FE0448BB
:10244000FEF7C2FD00BFC837BD4680BD0010024088
:102450000078004080B5B2B000AF07F1AC030022B5
:102460001A605A609A60DA601A615A619A6107F1DB
:10247000940300221A605A609A60DA601A615A6105
:102480003B1D90220021184612F08AF840237B6001
:102490000023BB643B1D18460FF0E8F80346002BF1
:1024A00001D000F089FC1020FEF74CFE0120FEF761
:1024B00019FE4FF40073C7F894300223C7F8983020
:1024C0000323C7F89C300023C7F8A0300023C7F8C7
:1024D000A4300723C7F8A83007F1940319463548FC
:1024E0000FF09BFE4FF48063C7F894300223C7F8C7
:1024F00098300323C7F89C300023C7F8A03000238E
:10250000C7F8A4300723C7F8A83007F19403194689
:1025100028480FF082FE4FF48053C7F8943002230E
:10252000C7F898300323C7F89C300023C7F8A030C1
:102530000023C7F8A4300723C7F8A83007F1940395
:1025400019461C480FF069FE4FF4E133C7F8AC3070
:102550000023C7F8B0300023C7F8B4300023C7F811
:10256000B8300C23C7F8BC300023C7F8C0300023B4
:10257000C7F8C43007F1AC0319460F4810F0EAFF62
:102580000D48FEF759FD00210B48FEF765FD0021BF
:102590000948FEF73DFD00210748FEF725FD0648E6
:1025A000FEF76DFD0448FEF70FFD00BFC837BD46BE
:1025B00080BD00BF000002400010014080B5B2B0F5
:1025C00000AF07F1AC0300221A605A609A60DA602B
:1025D0001A615A619A6107F1940300221A605A60E5
:1025E0009A60DA601A615A613B1D902200211846F8
:1025F00011F0D6FF4FF400637B600023FB653B1DA9
:1026000018460FF033F80346002B01D000F0D4FB3E
:102610002020FEF797FD0420FEF764FD4023C7F855
:1026200094300223C7F898300323C7F89C30002366
:10263000C7F8A0300023C7F8A4300823C7F8A83093
:1026400007F19403194628480FF0E7FD8023C7F8E7
:1026500094300223C7F898300323C7F89C30002336
:10266000C7F8A0300023C7F8A4300823C7F8A83063
:1026700007F1940319461C480FF0CFFDFEF72EF822
:10268000034600220B211846FEF77EF80346194642
:102690004720FEF74FF84720FEF72EF84FF4E133BE
:1026A000C7F8AC300023C7F8B0300023C7F8B43007
:1026B0000023C7F8B8300C23C7F8BC300023C7F894
:1026C000C0300023C7F8C43007F1AC0319460748EF
:1026D00010F040FF0548FEF7D2FC0448FEF774FCFA
:1026E00000BFC837BD4680BD00080240001401404D
:1026F00080B500AF4FF48000FEF7F4FC4FF40010FB
:10270000FEF7F0FCFDF7EAFF034600220021184621
:10271000FEF73AF8034619460C20FEF70BF80C209A
:10272000FDF7EAFFFDF7DAFF034600220021184615
:10273000FEF72AF8034619463920FDF7FBFF39203A
:10274000FDF7DAFFFDF7CAFF034600220A2118460B
:10275000FEF71AF8034619463A20FDF7EBFF3A2038
:10276000FDF7CAFFFDF7BAFF034600220021184615
:10277000FEF70AF8034619463B20FDF7DBFF3B2036
:10278000FDF7BAFFFDF7AAFF034600220A2118460B
:10279000FDF7FAFF034619463C20FDF7CBFF3C202E
:1027A000FDF7AAFFFDF79AFF03460022092118460C
:1027B000FDF7EAFF034619464420FDF7BBFF44201E
:1027C000FDF79AFFFDF78AFF034600220121184614
:1027D000FDF7DAFF034619464520FDF7ABFF45201C
:1027E000FDF78AFF00BF80BD80B586B000AF3B46D5
:1027F00000221A605A609A60DA601A615A611020E9
:10280000FEF770FC0420FEF76DFC8020FEF76AFCEA
:102810000120FEF767FC0220FEF764FC0820FEF7AB
:1028200061FC0421C048FEF74EFC0821BE48FEF7BB
:102830004AFC1021BC48FEF746FC2021BA48FEF7AE
:1028400042FC4021B848FEF73EFC4FF40051B74827
:10285000FEF739FC4FF48041B448FEF734FC4FF4E6
:102860000041B248FEF72FFC4FF40061B048FEF77C
:102870002AFC4FF48061AF48FEF725FC4FF400615D
:10288000AD48FEF720FC4FF40041AB48FEF71BFCBF
:102890000121A848FEF717FC0221A648FEF713FC09
:1028A0001021A448FEF70FFC2021A248FEF70BFCE4
:1028B0004021A048FEF707FC04219D48FEF7F5FBE8
:1028C0004FF480619848FEF7F0FB4FF400619648A2
:1028D000FEF7EBFB4FF400419348FEF7E6FB4FF4A5
:1028E00080619348FEF7E1FB4FF480519048FEF77A
:1028F000DCFB4FF480718F48FEF7D7FB4FF400717B
:102900008C48FEF7D2FB4FF480718848FEF7CDFB70
:1029100004218848FEF7C9FB80218648FEF7C5FBE5
:102920004FF480718248FEF7C0FB4FF4007180487D
:10293000FEF7BBFB01217C48FEF7B7FB02217A487A
:10294000FEF7B3FB04233B6001237B600023BB60E5
:102950000023FB6000233B613B46194672480FF0A1
:102960005CFC08233B6001237B600023BB600023E9
:10297000FB6000233B613B4619466B480FF04DFC62
:1029800010233B6001237B600023BB600023FB60BE
:1029900000233B613B46194663480FF03EFC202371
:1029A0003B6001237B600023BB600023FB600023AE
:1029B0003B613B4619465C480FF02FFC40233B60CF
:1029C00001237B600023BB600023FB6000233B618D
:1029D0003B46194654480FF020FC4FF400533B602F
:1029E00001237B600023BB600023FB6000233B616D
:1029F0003B4619464D480FF010FC4FF480433B60B6
:102A000001237B600023BB600023FB6000233B614C
:102A10003B46194645480FF000FC4FF400433B602D
:102A200001237B600023BB600023FB6000233B612C
:102A30003B4619463D480FF0F0FB04233B60012361
:102A40007B600023BB600023FB6000233B613B46AF
:102A5000194637480FF0E1FB4FF480633B600123D8
:102A60007B600023BB600023FB6000233B613B468F
:102A700019462D480FF0D1FB4FF400633B60012352
:102A80007B600323BB600023FB6000233B613B466C
:102A9000194625480FF0C1FB4FF400433B6001236A
:102AA0007B600023BB600023FB6000233B613B464F
:102AB00019461D480FF0B1FB4FF480633B600123C2
:102AC0007B600023BB600023FB6001233B613B462E
:102AD000194617480FF0A1FB4FF400633B60012338
:102AE0007B600023BB600023FB6002233B613B460D
:102AF00019460F480FF091FB4FF480533B600123C0
:102B00007B600023BB600023FB6000233B613B46EE
:102B1000194607480FF081FB4FF480733B60012397
:102B20007B6003230AE000BF00100240000802405F
:102B300000040240000C024000000240BB60002381
:102B4000FB6000233B613B46194696480FF065FB4E
:102B50004FF400733B6001237B600323BB600023C1
:102B6000FB6000233B613B4619468E480FF055FB46
:102B70004FF480633B6001237B600023BB60002334
:102B8000FB6000233B613B46194686480FF045FB3E
:102B90004FF400633B6000237B6000233B613B46B6
:102BA000194680480FF039FB4FF480733B600123D6
:102BB0007B600023BB600023FB6001233B613B463D
:102BC000194679480FF029FB4FF400733B6000234E
:102BD0007B6000233B613B46194673480FF01DFBA9
:102BE0004FF480733B6000237B6000233B613B46D6
:102BF00019466E480FF011FB4FF400633B60012350
:102C00007B600023BB600023FB6000233B613B46ED
:102C1000194666480FF001FB4FF400433B60012367
:102C20007B600023BB600023FB6000233B613B46CD
:102C300019465E480FF0F1FA01233B6001237B60E7
:102C40000023BB600023FB6000233B613B46194629
:102C500054480FF0E2FA02233B6001237B6000231B
:102C6000BB600023FB6000233B613B4619464D4897
:102C70000FF0D3FA04233B6001237B600023BB6089
:102C80000023FB6000233B613B46194645480FF09B
:102C9000C4FA08233B6000237B6000233B613B4672
:102CA000194640480FF0B9FA10233B6001237B60BE
:102CB0000023BB600023FB6000233B613B461946B9
:102CC00038480FF0AAFA20233B6001237B600023E1
:102CD000BB600023FB6000233B613B461946314843
:102CE0000FF09BFA40233B6001237B600023BB6015
:102CF0000023FB6000233B613B46194629480FF047
:102D00008CFA80233B6001237B600023BB6000239F
:102D1000FB6000233B613B46194622480FF07DFAD9
:102D20004FF480733B6001237B600023BB60002372
:102D3000FB6000233B613B4619461D480FF06DFACE
:102D40004FF400733B6001237B600023BB600023D2
:102D5000FB6000233B613B46194615480FF05DFAC6
:102D600001233B6001237B600023BB600023FB60E9
:102D700000233B613B4619460E480FF04EFA0223F2
:102D80003B6001237B600023BB600023FB600023CA
:102D90003B613B46194607480FF03FFA00BF183722
:102DA000BD4680BD000C0240000802400000024009
:102DB000000402400010024080B400AF72B600BFB1
:102DC00000BFFDE780B483B000AF0F4B1B6C0E4A11
:102DD00043F0805313640C4B1B6C03F080537B60F7
:102DE0007B68094B5B6C084A43F480435364064B91
:102DF0005B6C03F480433B603B6800BF0C37BD460F
:102E00005DF8047B704700BF0038024080B485B095
:102E100000AF78607B681B680A4A93420BD10A4B6B
:102E20001B6B094A43F480531363074B1B6B03F47A
:102E30008053FB60FB6800BF1437BD465DF8047B20
:102E4000704700BF003002400038024080B400AF3D
:102E500000BFFDE780B400AF00BFFDE780B400AF66
:102E600000BFFDE780B400AF00BFFDE780B400AF56
:102E700000BFFDE780B400AF00BFBD465DF8047B36
:102E8000704780B400AF00BFBD465DF8047B70475B
:102E900080B400AF00BFBD465DF8047B704780B5CD
:102EA00000AF06F0E1FE06F009FE0DF0F3FB0DF0B9
:102EB000BDFC08F07DF900BF80BD80B500AF07F014
:102EC0005DFC00BF80BD80B400AF00BFBD465DF8B3
:102ED000047B704780B500AF06F020FE00BF80BDC8
:102EE00080B500AF06F034FF00BF80BD80B400AFF6
:102EF00001231846BD465DF8047B704780B582B05B
:102F000000AF7860396011F0ABFB034616221A60FF
:102F10004FF0FF3318460837BD4680BD80B582B0FC
:102F200000AF78604FF0FF317868FFF7E7FF00BF30
:102F3000FDE780B586B000AFF860B9607A60002325
:102F40007B610AE0AFF300800146BB685A1CBA609F
:102F5000CAB21A707B6901337B617A697B689A42D5
:102F6000F0DB7B6818461837BD4680BD80B586B05B
:102F700000AFF860B9607A6000237B6109E0BB684C
:102F80005A1CBA601B781846AFF300807B69013386
:102F90007B617A697B689A42F1DB7B681846183757
:102FA000BD4680BD80B483B000AF78604FF0FF3382
:102FB00018460C37BD465DF8047B704780B483B07B
:102FC00000AF786039603B684FF400525A600023CC
:102FD00018460C37BD465DF8047B704780B483B05B
:102FE00000AF7860012318460C37BD465DF8047BBE
:102FF000704780B485B000AFF860B9607A60002394
:1030000018461437BD465DF8047B704780B586B01E
:1030100000AF7860144A154BD31A7B617B693B6122
:10302000134B1B68002B02D1114B124A1A60104B34
:103030001A687B6813443A699A4207D211F010FB70
:1030400003460C221A604FF0FF3309E0084B1B685F
:10305000FB60074B1A687B681344054A1360FB68E2
:1030600018461837BD4680BD000008200004000047
:1030700050440020586B032080B400AF064BD3F8B7
:103080008830054A43F47003C2F8883000BFBD465B
:103090005DF8047B704700BF00ED00E0DFF834D03E
:1030A000FFF7EAFF0C480D490D4A002302E0D4580F
:1030B000C4500433C4188C42F9D30A4A0A4C002382
:1030C00001E013600432A242FBD311F0CFFAFEF705
:1030D00057F870470000082000000020104400202E
:1030E000C892030810440020546B0320FEE780B50B
:1030F00000AF00F0EFF803F0E7FC04F0E5FB01F0AF
:10310000FBFF00F099FF04F025FA04F03DF905F00B
:103110006BFF00BF80BD80B500AF012000F0FCF860
:10312000042003F003FD022004F0F4FB052002F06C
:1031300005F8062004F048FA072000F0A3FF082055
:1031400004F062F90A2005F087FF00BF80BD80B55A
:1031500000AF0DF07FF900BF80BD000080B582B0E8
:1031600000AF7860396006F0F7FA07F06DFC07F001
:10317000EDF806F06BFD06F051FC7B68012283F848
:103180004D207B68002283F8522000F08FFD03461B
:10319000002B2AD005F0A4FF1E4B5A687B689A6268
:1031A0001C4B1A897B68DA851A4B5A897B681A8608
:1031B000184B9A897B685A8605F0B6FF7B689A6A35
:1031C0007B68DB8D19467B681B8E0B447968498EC2
:1031D0000B44114981FB03018911DB17CB1A02FB58
:1031E00003F39A0A7B685A6310E07B680B4A9A6281
:1031F0007B686422DA857B6840F6D8621A867B6831
:1032000064225A867B6840F2A2725A6300BF083774
:10321000BD4680BD00400240D34D621020A1070092
:1032200080B584B000AF786039607B685B69FB6013
:103230007B685B693968786898470346FB72FB7A5C
:10324000002B08D1FB680649786898477B685B6962
:1032500004497868984700BF1037BD4680BD00BF5D
:10326000148603080086030880B584B002AF786036
:1032700039607B68002B03D10021134805F024FF3F
:1032800078683B685A683B689B68009313460F4A0E
:103290000F490DF02DF93B681A687B685A617B680D
:1032A00018337A681B2118460DF08EF97B681833A5
:1032B00018460DF0CBF93B681A7B7B6883F84820F1
:1032C00000BF0837BD4680BDF085030821320208E3
:1032D0005D31020890B587B002AF122300930A2334
:1032E000B422094909480CF0D9FC094B3C460FCBE4
:1032F00084E80F003B4619460648FFF7B5FF00BFBC
:103300001437BD4690BD00BFE0440020B04400200B
:10331000306503085444002080B582B000AF0346F6
:10332000FB71FB79194603480DF0FCF800BF083724
:10333000BD4680BD5444002080B582B000AF7860A7
:1033400039603B681B88013B1D2B58D801A252F8FD
:1033500023F000BFCD330208FF330208FF33020819
:10336000FF330208FF330208FF330208FF3302086D
:10337000FF330208FF330208FF330208FF3302085D
:10338000FF330208FF330208FF330208FF3302084D
:10339000FF330208FF330208FF330208FF3302083D
:1033A000FF330208FF330208FF330208FF3302082D
:1033B000FF330208FF330208FF330208FF3302081D
:1033C000DB330208EB330208F53302087B6818335D
:1033D00018460DF03BF9012312E021200CF0F2FE1B
:1033E0007B68094A5A6100230AE07B68074A5A61F0
:1033F000002305E07B68064A5A61002300E00223AF
:1034000018460837BD4680BD15340208213602082B
:103410003D37020880B588B000AF786039603B68FE
:103420001B88013B202B00F2E58001A252F823F01B
:10343000B5340208F53502082F350208F5350208C3
:10344000F5350208F5350208F5350208F5350208AC
:10345000F5350208F5350208F5350208F53502089C
:10346000F5350208F5350208F5350208F53502088C
:10347000F5350208F5350208F5350208F53502087C
:10348000F5350208F5350208F5350208F53502086C
:10349000F5350208F5350208E3350208F53502086E
:1034A000F5350208F53502083D3502086935020890
:1034B00095350208524B1B68524918460BF09EFB8B
:1034C0007B681833002244F6206118460DF09EF800
:1034D0007B6893F82C301946786800F084FA786895
:1034E00000F09AFA7B68DB8DFB607B681B8E3B618A
:1034F0007B685B8E7B617B689B6ABB617B6893F8B2
:103500002C30FB617B6893F82D30184606F0E4F907
:1035100007F10C03184606F0DFFE06F0D9FA07F0B3
:10352000E1F87B68002283F84820012363E07B6890
:10353000183318460DF08AF801235CE0304B1B6805
:10354000314918460BF05AFB7B6893F84830002B42
:1035500004D17B68012283F8482003E07B680322C2
:1035600083F84820012346E0254B1B68274918466D
:103570000BF044FB7B6893F84830012B04D17B6847
:10358000022283F8482003E07B68032283F8482066
:10359000012330E022200CF015FE194B1B681C495A
:1035A00018460BF02BFB7B6893F84830022B04D1B4
:1035B0007B68052283F8482003E07B68032283F8B8
:1035C00048200F4B1B68134918460BF017FB124B92
:1035D0001B68184600F042FE7B68104A5A610023BF
:1035E00009E07B68042283F848207B680B4A5A6113
:1035F000002300E0022318462037BD4680BD00BFEF
:1036000054E1002040650308546503087865030809
:1036100098650308BC6503080800002039330208D8
:1036200080B582B000AF786039603B681B88242B7E
:103630001ED0242B73DC232B3ED0232B6FDC012BDD
:1036400002D0222B2BD06AE07B68183318460CF08E
:10365000FDFF7B681B6C344A53607B68DB6B324A2E
:103660001360324B1B68184603F010FE012357E02D
:103670002D4B5B68B3F5804F28BF4FF480439AB25F
:103680002B4B1A80284B1B685B00294A128852007A
:103690001146284A184607F02DFA012340E0234B33
:1036A0001868234B1B881A467B6893F845302149DC
:1036B00003F0C8FD012333E01B4B5B681C4A1288F2
:1036C0009B1A194A5360184B1B68194A12881344F5
:1036D000154A1360144B5B68002B16D0124B5B68C5
:1036E000B3F5804F28BF4FF480439AB2104B1A8035
:1036F0000D4B1B685B000E4A1288520011460D4AA2
:10370000184607F0F7F901230AE0084B1B68184632
:1037100003F0CCFD7B68084A5A61002300E00223D5
:1037200018460837BD4680BD94450020040000209F
:10373000A0C50020A04500203933020880B582B022
:1037400000AF786039603B681B88012B02D0222BC8
:1037500010D01CE07B68183318460CF077FF7B68AC
:10376000DB6B5B000C4A4FF40041184607F0C2F9CE
:1037700001230DE0084807F0B9FB084B1B68184609
:1037800003F09CFE7B68064A5A61002300E0022396
:1037900018460837BD4680BDA04500200C0000201B
:1037A0003933020880B584B000AFF860B9607A6040
:1037B000FB70FB68BA68DA63FB687A681A64FB68B6
:1037C000FA7883F84520084B1B684FF6FF72A3F880
:1037D0004220FB68054918460CF0CEFE002318462F
:1037E0001037BD4680BD00BF040000203C860308A2
:1037F00080B582B000AF78607B680022DA637B68B6
:103800004FF480421A647B68012283F84520084BFC
:103810001B684FF6FF72A3F842207B6805491846E3
:103820000CF0AAFE002318460837BD4680BD00BF35
:10383000040000203C86030880B582B000AF7860A9
:103840007B68044918460CF097FE00231846083799
:10385000BD4680BD6486030880B582B000AF786045
:103860007B68044918460CF087FE00231846083789
:10387000BD4680BD7886030880B582B000AF786011
:103880007B68044918460CF077FE00231846083779
:10389000BD4680BD8C86030880B584B000AFF8605B
:1038A000B9607A60BB68012B02D87B68642B01D9B0
:1038B000062318E0FB6893F84D30002B06D000205B
:1038C00005F006FFFB68002283F84D207968B86890
:1038D00006F03EF87B68D9B2FA68BB6813444933F6
:1038E0000A461A70002318461037BD4680BD80B5C1
:1038F00082B000AF786039603B68242B01D9062381
:1039000014E07B6893F84D30012B06D0012005F0C0
:10391000DFFE7B68012283F84D20386805F054FFF4
:103920003B68DAB27B6883F84B20002318460837DF
:10393000BD4680BD80B582B000AF78607B6893F8EB
:103940004D30012B06D0012005F0C2FE7B6801221C
:1039500083F84D2005F05AFF7B68FF2283F84B2047
:10396000002318460837BD4680BD80B582B000AF41
:10397000786039603B68082B01D9062314E07B6826
:1039800093F84D30012B06D0012005F0A1FE7B6895
:10399000012283F84D20386805F04EFF3B68DAB20B
:1039A0007B6883F84C20002318460837BD4680BD4D
:1039B00080B582B000AF78607B6893F84D30012B02
:1039C00006D0012005F084FE7B68012283F84D209B
:1039D00005F064FF7B68FF2283F84C200023184623
:1039E0000837BD4680BD80B582B000AF78603960D1
:1039F0003B68242B01D906230AE006F037FD38681E
:103A000006F05CFD3B68DAB27B6883F84E20002349
:103A100018460837BD4680BD80B582B000AF7860DB
:103A200006F038FD002318460837BD4680BD00006B
:103A300080B582B000AF786039603B681B68002BAE
:103A400004D03B681B68154A934201D9062321E044
:103A50003B68DB68B3F5006F01D906231AE03B68C9
:103A60001A687B689A623B68DA887B68DA853B680B
:103A70001A897B681A863B685A897B685A863B6834
:103A8000DA687B685A633B681A697B689A6300F05E
:103A9000E5F8002318460837BD4680BD50F80C00F5
:103AA00080B483B000AF786039603B685B79642B89
:103AB00001D9062305E03B685A797B6883F82D20FD
:103AC000002318460C37BD465DF8047B704780B470
:103AD00083B000AF786039603B681B79002B03D05E
:103AE0003B681B79242B01D9062305E03B681A7932
:103AF0007B6883F82C20002318460C37BD465DF800
:103B0000047B7047B0B582B000AF786039603B6825
:103B10001B68002B04D03B681B68194A934201D9EB
:103B2000062328E03B681B79002B03D03B681B79F8
:103B3000242B01D906231EE03B685B79642B01D955
:103B4000062318E03B68DB68B3F5006F01D9062354
:103B500011E03B681B69002B01D106230BE07B6859
:103B60003A6803F1280415460FCD0FC42B68236073
:103B700000F074F8002318460837BD46B0BD00BFFA
:103B800050F80C00B0B483B000AF786039603A6888
:103B90007B68154603F128040FCC0FC523682B6002
:103BA00000BF0C37BD46B0BC7047000080B584B084
:103BB00000AF78607B682833FB60FB681B68002BD4
:103BC00004D0FB681B68134A934201D906231CE00A
:103BD000FB681B79002B03D0FB681B79242B01D9D0
:103BE000062312E0FB685B79642B01D906230CE005
:103BF000FB68DB68B3F5006F01D9062305E07B683D
:103C0000054918460CF0B8FC002318461037BD468D
:103C100080BD00BF50F80C002886030880B582B034
:103C200000AF78600B467B807B889B031A467B68DD
:103C3000DA637B684FF480421A647B68012283F860
:103C400044207B68044918460CF096FC0023184673
:103C50000837BD4680BD00BF5086030880B582B0DE
:103C600000AF05F03DFA0F4B4FF0BC321A600E4B1F
:103C70009B6A0C4A53600C4BDA8D0A4B1A810A4B33
:103C80001A8E084B5A81084B5A8E064B9A81002394
:103C90007B60044A7B68136105F046FA00BF083771
:103CA000BD4680BD004002405444002080B500AFB6
:103CB00005F016FA084B1B68B3F1BC3F06D014227E
:103CC0000021054810F06CFC002302E005F02CFAFE
:103CD0000123184680BD00BF0040024080B483B07D
:103CE00000AF786039607B683A689A6100BF0C3732
:103CF000BD465DF8047B704780B483B000AF786048
:103D000039603B681A047B689A6100BF0C37BD4676
:103D10005DF8047B7047000080B582B000AF78602A
:103D20000B46FB707B68FA78114618460BF094FD41
:103D300000F0E8FA02467B68C3F804227B680022A0
:103D400083F80C227B68012283F80D22FB78032B79
:103D500004D8FB7806497A6841F823207B68012162
:103D600018460BF01BFA00BF0837BD4680BD00BFE8
:103D7000A8C8002080B582B000AF78607A687B6800
:103D800093F80032194610460BF066FD7B6801215E
:103D900018460BF003FA00F0B5FA02467B68C3F848
:103DA00004227B68002283F80C2200BF0837BD463E
:103DB00080BD80B483B000AF786039607B683A68BA
:103DC000C3F8082200BF0C37BD465DF8047B70477E
:103DD00080B586B000AFF860B9607A60FB687A6839
:103DE000B96818460BF092FC00F08CFA7861FB6819
:103DF00093F8E230002B35D0FB6893F8E4301A4694
:103E000013465B0013449B00FA6813443B613B6913
:103E10001B687A69D31A40F6B83293421ED9FB6800
:103E200093F80C3283F00103DBB2002B1AD0FB684D
:103E3000D3F80832002B04D0FB68D3F80832F868B6
:103E40009847FB68012283F80C22FB6893F80D3237
:103E5000002B07D0F868FFF78DFF03E0FB68002216
:103E600083F80C22FB687A69C3F8042200BF183774
:103E7000BD4680BD80B483B000AF786000BF0C3712
:103E8000BD465DF8047B704780B500AF4FF480728B
:103E9000084909480CF028F84FF48072074908488F
:103EA0000CF022F8064B044A064907480BF0DAFDED
:103EB00000BF80BDE0C90020B8C90020E0CA0020D2
:103EC000CCC9002000780040E0CB002080B582B053
:103ED00000AF786039607B68002B03D101210F4867
:103EE00005F0F2F87B680E4A9A610E490C48FFF71C
:103EF00060FF7B6824330A220A2118460CF086FBF7
:103F000009480BF0CBFD7B689B6900211846FFF741
:103F100003FF00BF0837BD4680BD00BFA086030871
:103F200098C60020753E0208E0CB002080B584B022
:103F300000AF786039607B68002B03D10421124800
:103F400005F0C2F83B68002B03D105210E4805F0AF
:103F5000BBF87B685B69FB607B685B693968786884
:103F600098470346FB72FB7A002B08D1FB68074990
:103F7000786898477B685B6905497868984700BF0F
:103F80001037BD4680BD00BFA0860308B886030871
:103F9000AC86030880B584B002AF786039607B6876
:103FA000002B03D10221214805F08EF878683B6888
:103FB000DA683B681B69009313461D4A1D490CF0E3
:103FC00097FA7B6824337A680D2118460CF0FCFAC6
:103FD0007B6834337A68102118460CF0F5FA7B6858
:103FE00044337A68112118460CF0EEFA3B681A68DF
:103FF0007B685A613B685A687B689A613B689A683B
:104000007B68DA617B68243318460CF01FFB7B6801
:10401000343318460CF01AFB7B68443318460CF016
:1040200015FB00BF0837BD4680BD00BFA086030852
:104030002D3F0208CD3E0208B0B588B002AFFFF7B1
:1040400023FF0C2300930A2378220A490A480BF025
:1040500025FE0A4B3C1D1D460FCD0FC42B68236067
:104060003B1D19460648FFF795FF00BF1837BD46B0
:10407000B0BD00BF20C60020F8C50020D0650308F1
:10408000A4C5002080B582B000AF0346FB71FB7968
:10409000194603480CF046FA00BF0837BD4680BDFC
:1040A000A4C5002080B582B000AF786039607B681D
:1040B000002B03D10321594805F006F83B681B8803
:1040C000013B102B00F2A58001A252F823F000BFA3
:1040D0001541020813420208134202081342020863
:1040E0001342020813420208134202081342020854
:1040F0001342020813420208134202081342020844
:104100003141020877410208A5410208D541020861
:10411000054202084FF49671032004F005FE7B6807
:1041200024330A220A2118460CF070FA012371E0A8
:10413000032004F031FE3A4B4FF480721A607B6822
:10414000DB69374A374918460BF0C8FC0346002B99
:1041500008D07B689B69324A126832491846FFF7DB
:1041600037FE06E07B689B69002200211846FFF7B6
:104170002FFE01234EE0032004F0F4FD7B6824337E
:1041800018460CF063FA4FF400612748FFF7A6FDCC
:104190007B683433002244F6206118460CF036FA6E
:1041A000012337E04FF49671032004F0BDFD7B68D6
:1041B000343318460CF04AFA4FF400611A48FFF7FE
:1041C0009BFD7B6824330A220A2118460CF01EFA54
:1041D00001231FE04FF49671032004F0A5FD7B68D6
:1041E000343318460CF032FA4FF400610E48FFF7F2
:1041F00083FD7B6824330A220A2118460CF006FA54
:10420000012307E0032004F0ADFD04F0ADFE01231F
:1042100000E0022318460837BD4680BDA08603088B
:1042200010000020B8C800200004024080B586B00D
:1042300000AF786007F10C0300221A605A609A60A0
:104240000E23BB817B6807F10C02114618460CF067
:1042500093F9002318461837BD4680BD80B586B057
:1042600000AF786007F10C0300221A605A609A6070
:104270000F23BB817B6807F10C02114618460CF036
:104280007BF9002318461837BD4680BD80B582B043
:1042900000AF78607B68443300224FF4FA6118461F
:1042A0000CF0B4F9002318460837BD4680BD000065
:1042B00080B582B000AF0346FB71064BDB699B689B
:1042C00018460BF019FF03469BB218460837BD4647
:1042D00080BD00BFA4C5002080B582B000AF0346FA
:1042E0000A46FB711346BB71054BDB69BA7911466F
:1042F00018460BF02BFC00BF0837BD4680BD00BF41
:10430000A4C5002080B500AF0CF012FA0346184691
:1043100080BD000080B586B000AF396011461A46F6
:104320000346FB710B46BB7113467B717B79032BF4
:1043300034D87B791C4A52F823303B613B69002B0F
:104340002ED01A4B1B68002B05D0184B1B68BA796E
:10435000F8793968984700F055FEF86000F05CFE87
:10436000B86000237B6114E07B69DB00FA681344CA
:104370001B78FA799A4209D17B69DB00FA68134409
:104380005B68BA793968386998470AE07B69013314
:104390007B617A69BB689A42E6DB02E000BF00E01D
:1043A00000BF1837BD4680BDA8C80020F0CB002054
:1043B00080B584B000AFF8607A601A460B46FB7295
:1043C0001346BB72FB68BA7A114618460AF042FFE0
:1043D0000346002B05D0F868BB7AF97A7A680AF0B0
:1043E000F1FE00BF1037BD4680BD000080B500AFB4
:1043F000074BDB6918460BF0EFFB054BDB691846F2
:104400000BF019FC034B4FF0FF321A6200BF80BD66
:10441000A4C500200078004080B584B000AFF860EB
:10442000B9601346FB71002300220121F868FFF7F1
:10443000BFFF044B1B681846FFF728FF00BF10376B
:10444000BD4680BD1400002080B586B000AFF86086
:10445000B9601346FB71BB681B781A06BB68013351
:104460001B781B041A43BB6802331B781B021343DF
:10447000BA680332127813437B61FB79BA6803216F
:10448000F868FFF795FF00BF1837BD4680BD80B5BF
:1044900088B002AFF860B9601346FB71BB681B7847
:1044A000FB75BB6801331B78BB75BB6802331B7897
:1044B0007B75BB6803331B783B75FB79BA680521B4
:1044C000F868FFF775FFF97DBA7D787D3B7D009335
:1044D000034624200BF076FE3B7D7A7DB97DF87D86
:1044E00006F03EFE00BF1837BD4680BD80B586B0E1
:1044F00000AFF860B9601346FB71FF233B75BB68E2
:104500001B78FB75084B1B68FA7D1146184603F0B3
:10451000C1F807F1140201230921F868FFF748FFE9
:1045200000BF1837BD4680BD200000202DE9F043B4
:104530009BB00CAFF861B9611346FB754FF63F7342
:10454000BB840023FB86BB691B781BB21B021AB21B
:10455000BB6901331B781BB21343BB86BB690233B3
:104560001B781BB21B021AB2BB6903331B781BB248
:1045700013437B86BB6904331B781BB21B021AB240
:10458000BB6905331B781BB213433B86BB690633FB
:104590001B7887F82F30BB6907331B7887F82E30DC
:1045A000BB6908331B7887F82D30BB6909331B784A
:1045B00087F82C30BB690A331B7887F82B30BB692E
:1045C0000B331B781BB21B021AB2BB690C331B786E
:1045D0001BB213431BB23B85BB690D331B7887F8B5
:1045E000273097F82F30072B02D9FB8E0133FB863B
:1045F00097F82E30072B02D9FB8E0133FB8697F8F4
:104600002C300F2B02D9FB8E0133FB8697F82B3011
:104610000F2B02D9FB8E0133FB86FB8E002B57D16B
:10462000344B1868B98E7A8E3C8E97F827300693F3
:104630003B8D059397F82B30049397F82C30039318
:1046400097F82D30029397F82E30019397F82F307A
:104650000093234604F030FAB7F934C0B7F9343088
:104660004FEA132EB7F93280B7F932301A0AB7F988
:104670003010B7F93030180A97F82F4097F82E50BD
:1046800097F82D6097F82C303B6197F82B30FB6042
:10469000B7F828904B46BB603B8D1B0A9BB27B60F2
:1046A00097F827300A937B680993BB680893FB68E7
:1046B00007933B6906930596049503940290019134
:1046C000009243467246614603200BF07BFD05E0F5
:1046D0003E2387F824303E2387F8253007F1240253
:1046E00002230B21F869FFF763FE00BF3C37BD468C
:1046F000BDE8F0831800002080B586B000AFF860F8
:10470000B9601346FB71FF23FB7505200BF05AFDC2
:10471000074B1B68184603F00FFD07F11702012332
:104720000D21F868FFF744FE00BF1837BD4680BD75
:104730001800002080B586B000AFF860B96013465D
:10474000FB71FF23FB7504200BF03CFD074B1B683E
:10475000184603F0CDFC07F1170201230F21F8687A
:10476000FFF726FE00BF1837BD4680BD18000020A9
:1047700090B58BB002AFF860B9601346FB714FF68D
:104780003F73BB820023FB77BB681B781B02BA68B0
:104790000132127813439BB21A465201D21A920088
:1047A0001344DB00BB83BB6802331B78FB76BB681A
:1047B00003331B781BB21B021AB2BB6804331B788D
:1047C0001BB213431BB23B83BB8B4EF6602293425A
:1047D00002D9FB7F0133FB77FB7E042B03D9FB7FE0
:1047E0000133FB7722E0FB7E042B0DD107F114028D
:1047F00002231121F868FFF7DBFD2D4B1B68042114
:10480000184603F073FF4FE0294B1B68184603F06E
:10481000B8FD0346FB75FA7DFB7E42FA03F303F015
:104820000103002B02D0FB7F0133FB773B8BB3F5F9
:10483000FA7F04D33B8B40F6B832934202D9FB7F18
:104840000133FB77FB7F002B23D1BB8B184600F095
:10485000F1FC174B1B68FA7E1146184603F046FF21
:10486000134B1B683A8B1146184603F058FFB98B5F
:10487000BB8B1B0A9BB21C46F87E3B8B3A8B120A01
:1048800092B2019200930346224609200BF09AFC53
:1048900003E03E233B753E237B7507F114020223A0
:1048A0001121F868FFF784FD2437BD4690BD00BF95
:1048B0001800002080B586B000AFF860B9601346DC
:1048C000FB71FF23FB7507F1170201231321F86821
:1048D000FFF76EFD0A200BF075FC00F06FFC00BFC7
:1048E0001837BD4680BD80B586B000AFF860B960AE
:1048F0001346FB71FF23FB7507F1170201231521F6
:10490000F868FFF755FD0B200BF05CFC00F07AFC1B
:1049100000BF1837BD4680BDF0B59BB008AF7861C9
:1049200039611346FB734FF63F733B860023A7F8AC
:1049300046303B691B781A063B6901331B781B0420
:104940001A433B6902331B781B0213433A69033253
:10495000127813433B643B6904331B781B029BB200
:104960003A69053212781343FB873B6906331B789B
:104970001B029BB23A69073212781343BB873B692B
:1049800008331B781B029BB23A6909321278134331
:104990007B873B6CB3F57A7F03D33B6C494A9342E8
:1049A00004D9B7F846300133A7F84630FB8F002B07
:1049B00004D1B7F846300133A7F84630BB8F002B3F
:1049C00004D1B7F846300133A7F846307B8F002B6F
:1049D00004D1B7F846300133A7F84630FA8FBB8FC1
:1049E0001A447B8F1344384A82FB03129211DB175F
:1049F000D31A1A463B6C02FB03F39B0A7B637B6B67
:104A0000B3F5006F04D9B7F846300133A7F8463044
:104A1000B7F84630002B44D13B6CFB61FB8F7B84A5
:104A2000BB8FBB847B8FFB847B6BBB62274A3B6C59
:104A3000B2FBF3F3FB62264B1B6807F11C02114625
:104A40001846FEF7F5FF0346002B23D13B6C1D0AE9
:104A50003B6C1E0C3B6C1B0EFA8FF98F090A89B256
:104A6000B960B98FB88F000A80B27860788F7C8F78
:104A7000240AA4B206940590786804900391B9685A
:104A800002910192009333462A46396C1E200BF0A6
:104A900099FB0CE03E2387F830303E2387F8313015
:104AA00005E03E2387F830303E2387F8313007F1A8
:104AB0003002022317217869FFF77AFC00BF4C37D8
:104AC000BD46F0BD50F80C00D34D621040420F00BF
:104AD0001C00002080B58AB000AFF860B9601346B2
:104AE000FB714FF63F73BB84BB681B7887F8273098
:104AF00097F82730642B06D93E2387F824303E23CD
:104B000087F8253029E0164B1B6807F11002114683
:104B10001846FFF737F897F827307B75104B1B685E
:104B200007F1100211461846FEF7BAFF0346002BA4
:104B300006D197F8273019461F200BF043FB05E0FC
:104B40003E2387F824303E2387F8253007F12402DE
:104B500002231921F868FFF72BFC2837BD4680BDDA
:104B60001C00002080B58AB000AFF860B960134621
:104B7000FB714FF63F73BB84BB681B7887F8273007
:104B800097F82730242B03D897F82730002B06D12D
:104B90003E2387F824303E2387F8253022E0174B48
:104BA0001B6807F1100211461846FEF7EBFF97F855
:104BB00027303B75114B1B6807F110021146184650
:104BC000FEF785FF0346002B06D197F827301946DC
:104BD00020200BF0F7FA05E03E2387F824303E232F
:104BE00087F8253007F1240202231B21F868FFF71C
:104BF000DFFB00BF2837BD4680BD00BF1C00002082
:104C000080B586B000AFF860B9601346FB713F23F2
:104C10003B750D4B1B681846FEF7C8FF0346002B7B
:104C200002D03E233B7504E0084B1B681846FFF793
:104C3000FDFA07F1140201231D21F868FFF7B8FB04
:104C400000BF1837BD4680BD1C00002014000020A6
:104C500080B58AB000AFF860B9601346FB71194B9C
:104C60001B6807F1100211461846FEF78BFFFB691F
:104C7000002B06D1002387F82430002387F8253045
:104C800014E0FB691B09FB84FB6903F00F03002B95
:104C900002D0FB8C0133FB84FB8C1B0A9BB2DBB282
:104CA00087F82430FB8CDBB287F8253007F124022B
:104CB00002231F21F868FFF77BFB00BF2837BD46A2
:104CC00080BD00BF1C00002080B58CB000AFF86034
:104CD000B9601346FB714FF63F733B85BB681B7889
:104CE00087F82D30214B1B6807F114021146184636
:104CF000FEF748FF3B6A1B09FB853B6A03F00F0385
:104D0000002B02D0FB8D0133FB85FB8D002B06D1E0
:104D10003E2387F828303E2387F829301BE097F898
:104D20002D309BB2FA8D9A4206D83E2387F8283060
:104D30003E2387F829300EE097F82D3019462520BC
:104D40000BF040FA094B1B6897F82D2092B21146E0
:104D50001846FEF763FF07F1280202232121F868B5
:104D6000FFF726FB00BF3037BD4680BD1C0000208A
:104D700080B586B000AFF860B9601346FB7106F0ED
:104D800027F978617B691B0EDBB23B747B691B0CD6
:104D9000DBB27B747B691B0ADBB2BB747B69DBB261
:104DA000FB7407F1100204232321F868FFF700FBCE
:104DB00000BF1837BD4680BD80B586B000AFF86033
:104DC000B9601346FB714FF63F73BB8204F092FE4D
:104DD00007F1140202232521F868FFF7E9FA00BF62
:104DE0001837BD4680BD80B586B000AFF860B960A9
:104DF0001346FB7106F0ECF878617B691B0EDBB2A1
:104E00003B747B691B0CDBB27B747B691B0ADBB2D6
:104E1000BB747B69DBB2FB7407F11002042327210A
:104E2000F868FFF7C5FA00BF1837BD4680BD00001F
:104E300080B586B000AFF860B9601346FB714FF6DD
:104E40003F733B82BB681B78FB75BB6801331B78E3
:104E5000BB82B7F91430642B03DC97F91730012BB0
:104E600004DD3E233B743E237B7408E0094B1B6842
:104E700097F91710B7F914201846FEF70DFD07F142
:104E8000100202232921F868FFF792FA00BF1837B1
:104E9000BD4680BD1C00002080B586B000AFF86024
:104EA000B9601346FB714FF63F73BB82BB681B783A
:104EB000FB75BB6801331B78BB75FB7D002B05D1EF
:104EC000BB7D242B0BD8BB7D002B08D0FB7D012B99
:104ED0000AD1BB7D082B02D8BB7D002B04D13E2319
:104EE0003B753E237B7514E0FB7D002B07D10E4BF9
:104EF0001B68BA7D11461846FEF7F9FC09E0FB7DF8
:104F0000012B06D1084B1B68BA7D11461846FEF7E7
:104F10002CFD07F1140202232B21F868FFF748FA51
:104F200000BF1837BD4680BD1C00002080B586B08C
:104F300000AFF860B9601346FB71FF233B75BB6897
:104F40001B78FB7507F1140201232D21F868FFF788
:104F50002FFAFB7D002B05D1084B1B681846FEF786
:104F6000E9FC07E0FB7D012B04D1044B1B681846CC
:104F7000FEF71EFD00BF1837BD4680BD1C00002097
:104F800080B588B000AFF860B9601346FB7104F0DB
:104F9000F3FC0346FB8304F017FD0346BB833F236A
:104FA0003B75FB8B1B0A9BB2DBB27B75FB8BDBB2C9
:104FB000BB75BB8B1B0A9BB2DBB2FB75BB8BDBB239
:104FC0003B7607F1140205233321F868FFF7F0F967
:104FD00000BF2037BD4680BD80B586B000AFF86009
:104FE000B9601346FB71FF233B750BF01BFA07F109
:104FF000140201233521F868FFF7DAF900BF1837EA
:10500000BD4680BD80B400AF024B1846BD465DF87A
:10501000047B7047C486030880B400AF1823184689
:10502000BD465DF8047B704780B582B000AF786004
:1050300039607B68183318460BF008FB00BF08374F
:10504000BD4680BD80B584B000AF786039607B68B4
:105050005B69FB607B685B693968786898470346E1
:10506000FB72FB7A002B08D1FB68064978689847E9
:105070007B685B6904497868984700BF1037BD4674
:1050800080BD00BFA88703089487030880B584B05B
:1050900002AF786039607B68002B03D10021134890
:1050A00004F012F878683B685A683B689B68009384
:1050B00013460F4A0F490BF01BFA7B6818337A68C6
:1050C000172118460BF080FA3B681A687B685A6112
:1050D0007B68002283F828207B68183318460BF081
:1050E000B5FA00BF0837BD4680BD00BF84870308FE
:1050F000455002082950020880B586B002AF12233D
:10510000009302232422094909480AF0C7FD094AED
:105110003B1D07CA83E807003B1D19460648FFF7F9
:10512000B5FF00BF1037BD4680BD00BF34CC0020A6
:1051300058CC0020E4650308F4CB002080B582B091
:1051400000AF0346FB71FB79194603480BF0EAF9FF
:1051500000BF0837BD4680BDF4CB002080B582B0CB
:1051600000AF786039603B681B88012B02D0172B99
:1051700002D01BE001231AE07B6893F82830002B53
:1051800009D10D4B1B68184603F0E5FA7B68012234
:1051900083F8282008E0084B1B68184603F06AFBD8
:1051A0007B68002283F82820012300E002231846B0
:1051B0000837BD4680BD00BF2400002080B500AF89
:1051C0000C4B1B68184603F0C6FA0346002B01D0AF
:1051D00001230CE0084B1B88074A12881946074830
:1051E0000BF014FA064B012283F8282000231846FE
:1051F00080BD00BF24000020280000200CCC00202F
:10520000F4CB002080B500AF07480BF01FFA074B26
:105210001B68184603F02EFB054B002283F828205C
:105220000023184680BD00BF0CCC002024000020C5
:10523000F4CB002080B483B000AF0346FB80044A67
:10524000FB88138000BF0C37BD465DF8047B7047B8
:105250002800002080B400AFBFF34F8F00BF064B83
:10526000DB6803F4E0620449044B1343CB60BFF3F3
:105270004F8F00BF00BFFDE700ED00E00400FA051E
:1052800080B584B000AFF860B9607A6004F0B4FC17
:1052900000BF1037BD4680BD80B5ADF5826D00AF53
:1052A00007F58263A3F20443186007F58263A3F550
:1052B0008163196007F58263A3F20C431A6007F556
:1052C0008263A3F5806318464FF480631A46002179
:1052D0000FF066F907F110031A464FF480610020C1
:1052E00005F0BCFB07F58263A3F204430849186884
:1052F00009F084FC07F58263A3F2044305491868AA
:1053000009F07CFC00BF07F58267BD4680BD00BF89
:10531000F06503080066030880B5ADF5836D00AF46
:1053200007F58363A3F20C43186007F58363A3F5C5
:105330008263196007F58363A3F214431A6007F1CF
:1053400014031A464FF48061002005F099FB07F51D
:105350008363A3F20C431F49186809F04FFC002334
:10536000C7F8143424E007F58363A3F20442D7F8A6
:10537000143413441B781A4607F58363A3F20C43D5
:105380001549186809F03AFCD7F81434013303F0D2
:105390000F03002B07D107F58363A3F20C430F49DA
:1053A000186809F02BFCD7F814340133C7F814340B
:1053B000D7F81434B3F5806FD5DB07F58363A3F218
:1053C0000C430649186809F019FC00BF07F583670C
:1053D000BD4680BD046603081C66030824660308F6
:1053E00080B588B000AFF860B9607A6007F1140347
:1053F000074A0A2118460EF04DFF07F1140319461B
:10540000F86808F084F900BF2037BD4680BD00BFB2
:105410005C70030880B584B000AFF860B9607A6052
:10542000FFF718FF80B588B000AFF860B9607A6008
:105430000023BB610023FB82B86808F059FA0346D9
:105440007B757B7D012B04D02E49F86809F0D6FBD3
:1054500054E00121B86808F015FA38613B691B78FF
:10546000612B22D10023FB771BE0FB7F184604F061
:1054700001FC0346FB82B7F9163013F5004F06D145
:10548000FB7F1A462049F86809F0B8FB06E0FA7F6E
:10549000B7F916301D49F86809F0B0FBFB7F0133FE
:1054A000FB77FB7F072BE0D928E03B691B782F2B8C
:1054B00020D93B691B78372B1CD838690EF010F9BE
:1054C0000346BB61B86904F0D5FB0346FB82B7F91C
:1054D000163013F5004F05D1BA690B49F86809F089
:1054E0008DFB0BE0B7F91630BA690849F86809F086
:1054F00085FB03E00649F86809F080FB2037BD46CC
:1055000080BD00BF647003088470030898700308AE
:10551000AC70030880B588B000AFF860B9607A60FD
:10552000B86808F0E5F90346FB61FB69012B04D07C
:105530001549F86809F062FB23E0144B1B68184614
:1055400003F0D8F9034683F00103DBB2002B04D04B
:105550000F49F86809F052FB13E00121B86808F020
:1055600091F9B861B8690EF0BBF803467B61074B4F
:105570001B687969184602F003FE0649F86809F0CD
:105580003DFB2037BD4680BD647003082C00002021
:10559000C07003080C71030880B584B000AFF860D8
:1055A000B9607A600A4B1B68184602F002FE034697
:1055B000002B04D00749F86809F020FB03E00649F6
:1055C000F86809F01BFB00BF1037BD4680BD00BF67
:1055D0002C0000200C7103081471030880B588B0FA
:1055E00000AFF860B9607A60B86808F081F90346E6
:1055F000BB61BB69012B04D03849F86809F0FEFA99
:1056000069E0374B1B68184603F074F9034683F0D2
:105610000103DBB2002B04D03249F86809F0EEFA3E
:1056200059E00121B86808F02DF9786100233B6149
:105630007B691B78612B25D10023FB611EE0284B81
:105640001B68F969184602F0FAFD38613B69002BC6
:105650000CD1234B1B680022F969184603F0DEF9D0
:10566000FA692149F86809F0C9FA04E0FA691F49A2
:10567000F86809F0C3FAFB690133FB61FB69032B8E
:10568000DDD928E07B691B782F2B24D97B691B7817
:10569000332B20D878690EF023F80346FB61104BBA
:1056A0001B68F969184602F0CAFD38613B69002B96
:1056B0000CD10B4B1B680022F969184603F0AEF9B8
:1056C000FA690949F86809F099FA04E0FA690749A2
:1056D000F86809F093FA2037BD4680BD647003086E
:1056E0002C0000201C710308647103087871030802
:1056F00080B588B000AFF860B9607A60B86808F02B
:10570000F7F80346FB61FB69012B04D01549F868E3
:1057100009F074FA22E00121B86808F0B3F8B86122
:10572000B8690DF0DDFF0346FB82FB8AB3F5FA7F13
:1057300004D3FB8A40F6B832934204D90A49F86888
:1057400009F05CFA0AE0094B1B68FA8A1146184610
:1057500003F088F90649F86809F050FA2037BD4689
:1057600080BD00BF90710308B87103082C000020B1
:105770000C71030880B586B000AFF860B9607A603C
:10578000084B1B68184603F089F90346FB82FB8A25
:105790001A460549F86809F031FA00BF1837BD46C6
:1057A00080BD00BF2C000020EC71030880B588B0DC
:1057B00000AFF860B9607A60B86808F099F80346FD
:1057C000BB61BB69042B04D03149F86809F016FAB3
:1057D0005BE0304B1B68184603F072F80346FB751C
:1057E0000023FB614AE0FB699BB201339BB219467F
:1057F000B86808F047F8034618460DF071FF0346F5
:10580000D9B207F11002FB6913440A461A7007F176
:105810001002FB6913441B78012B05D9FA691E4954
:10582000F86809F0EBF930E007F11002FB69134466
:105830001B78002B08D1174B1B68FA69D2B21146AE
:10584000184602F07BFD16E0FB7DFA699A4205D10D
:10585000FA691249F86809F0D1F90CE00D4B1B68A0
:10586000FA69D2B21146184602F047FDFA690C49AE
:10587000F86809F0C3F9FB690133FB61FB69032B8D
:10588000B1D90849F86809F0B9F92037BD4680BD9B
:10589000107203082C000020347203085C720308A5
:1058A000807203080C71030880B586B000AFF86001
:1058B000B9607A60134B1B68184602F062FD03461C
:1058C000FB7400237B6115E0FA7C7B6942FA03F3E9
:1058D00003F00103002B05D07A690B49F86809F041
:1058E0008DF904E07A690949F86809F087F97B695C
:1058F00001337B617B69032BE6D900BF00BF1837FA
:10590000BD4680BD2C0000208072030898720308F9
:1059100080B58CB000AFF860B9607A60354B1B6819
:10592000184602F0E7FF034683F00103DBB2002BC9
:1059300004D03149F86809F061F958E0B86807F017
:10594000D7FF0346FB62FB6A032B04D02B49F868A0
:1059500009F054F94BE00121B86807F093FFB862F1
:10596000B86A0DF0BDFE03467B627B6A032B04D947
:105970002349F86809F042F939E00221B86807F0D4
:1059800081FF3862386A0DF0ABFE0346FB61FB69AC
:10599000012B04D91B49F86809F030F927E00321ED
:1059A000B86807F06FFFB861B8690DF099FE03465B
:1059B000FB82FB8A40F6B832934204D91249F86858
:1059C00009F01CF913E00B4B1868FB8AFA69796A35
:1059D00002F0A4FF38613B69002B04D00B49F86842
:1059E00009F00CF903E00A49F86809F007F93037C3
:1059F000BD4680BD2C000020B0720308D47203089D
:105A00000073030824730308487303081471030820
:105A10000C71030880B58AB000AFF860B9607A6095
:105A20002A4B1B68184602F065FF034683F001030A
:105A3000DBB2002B04D02649F86809F0DFF841E01A
:105A4000B86807F055FF03467B627B6A022B04D0DF
:105A50002049F86809F0D2F834E00121B86807F06D
:105A600011FF3862386A0DF03BFE0346FB61FB69AB
:105A7000032B04D91849F86809F0C0F822E0022184
:105A8000B86807F0FFFEB861B8690DF029FE03465B
:105A90007B610E4B18687B69002B14BF0123002328
:105AA000DBB21A46F96902F0B9FF38613B69002B95
:105AB00004D00A49F86809F0A1F803E00849F86839
:105AC00009F09CF82837BD4680BD00BF2C0000209F
:105AD000B072030874730308007303081471030899
